{
	"DepartmentStore.sol": {
		"ClassRecordBook": {
			"abi": [
				{
					"inputs": [
						{
							"internalType": "string",
							"name": "_studentName",
							"type": "string"
						},
						{
							"internalType": "uint256",
							"name": "_studentAge",
							"type": "uint256"
						}
					],
					"name": "addItems",
					"outputs": [],
					"stateMutability": "nonpayable",
					"type": "function"
				},
				{
					"inputs": [
						{
							"internalType": "string",
							"name": "",
							"type": "string"
						}
					],
					"name": "nameToAge",
					"outputs": [
						{
							"internalType": "uint256",
							"name": "",
							"type": "uint256"
						}
					],
					"stateMutability": "view",
					"type": "function"
				},
				{
					"inputs": [
						{
							"internalType": "uint256",
							"name": "",
							"type": "uint256"
						}
					],
					"name": "students",
					"outputs": [
						{
							"internalType": "string",
							"name": "studentName",
							"type": "string"
						},
						{
							"internalType": "uint256",
							"name": "studentAge",
							"type": "uint256"
						}
					],
					"stateMutability": "view",
					"type": "function"
				}
			],
			"devdoc": {
				"kind": "dev",
				"methods": {},
				"version": 1
			},
			"evm": {
				"assembly": "    /* \"DepartmentStore.sol\":57:502  contract ClassRecordBook {... */\n  mstore(0x40, 0x80)\n  callvalue\n  dup1\n  iszero\n  tag_1\n  jumpi\n  0x00\n  dup1\n  revert\ntag_1:\n  pop\n  dataSize(sub_0)\n  dup1\n  dataOffset(sub_0)\n  0x00\n  codecopy\n  0x00\n  return\nstop\n\nsub_0: assembly {\n        /* \"DepartmentStore.sol\":57:502  contract ClassRecordBook {... */\n      mstore(0x40, 0x80)\n      callvalue\n      dup1\n      iszero\n      tag_1\n      jumpi\n      0x00\n      dup1\n      revert\n    tag_1:\n      pop\n      jumpi(tag_2, lt(calldatasize, 0x04))\n      shr(0xe0, calldataload(0x00))\n      dup1\n      0x06ead22e\n      eq\n      tag_3\n      jumpi\n      dup1\n      0x07c4733a\n      eq\n      tag_4\n      jumpi\n      dup1\n      0x90c3ee4d\n      eq\n      tag_5\n      jumpi\n    tag_2:\n      0x00\n      dup1\n      revert\n        /* \"DepartmentStore.sol\":197:223  Students[] public students */\n    tag_3:\n      tag_6\n      0x04\n      dup1\n      calldatasize\n      sub\n      dup2\n      add\n      swap1\n      tag_7\n      swap2\n      swap1\n      tag_8\n      jump\t// in\n    tag_7:\n      tag_9\n      jump\t// in\n    tag_6:\n      mload(0x40)\n      tag_10\n      swap3\n      swap2\n      swap1\n      tag_11\n      jump\t// in\n    tag_10:\n      mload(0x40)\n      dup1\n      swap2\n      sub\n      swap1\n      return\n        /* \"DepartmentStore.sol\":285:500  function addItems(string memory _studentName, uint256 _studentAge) public {... */\n    tag_4:\n      tag_12\n      0x04\n      dup1\n      calldatasize\n      sub\n      dup2\n      add\n      swap1\n      tag_13\n      swap2\n      swap1\n      tag_14\n      jump\t// in\n    tag_13:\n      tag_15\n      jump\t// in\n    tag_12:\n      stop\n        /* \"DepartmentStore.sol\":230:273  mapping(string => uint256) public nameToAge */\n    tag_5:\n      tag_16\n      0x04\n      dup1\n      calldatasize\n      sub\n      dup2\n      add\n      swap1\n      tag_17\n      swap2\n      swap1\n      tag_18\n      jump\t// in\n    tag_17:\n      tag_19\n      jump\t// in\n    tag_16:\n      mload(0x40)\n      tag_20\n      swap2\n      swap1\n      tag_21\n      jump\t// in\n    tag_20:\n      mload(0x40)\n      dup1\n      swap2\n      sub\n      swap1\n      return\n        /* \"DepartmentStore.sol\":197:223  Students[] public students */\n    tag_9:\n      0x01\n      dup2\n      dup2\n      sload\n      dup2\n      lt\n      tag_22\n      jumpi\n      0x00\n      dup1\n      revert\n    tag_22:\n      swap1\n      0x00\n      mstore\n      keccak256(0x00, 0x20)\n      swap1\n      0x02\n      mul\n      add\n      0x00\n      swap2\n      pop\n      swap1\n      pop\n      dup1\n      0x00\n      add\n      dup1\n      sload\n      tag_24\n      swap1\n      tag_25\n      jump\t// in\n    tag_24:\n      dup1\n      0x1f\n      add\n      0x20\n      dup1\n      swap2\n      div\n      mul\n      0x20\n      add\n      mload(0x40)\n      swap1\n      dup2\n      add\n      0x40\n      mstore\n      dup1\n      swap3\n      swap2\n      swap1\n      dup2\n      dup2\n      mstore\n      0x20\n      add\n      dup3\n      dup1\n      sload\n      tag_26\n      swap1\n      tag_25\n      jump\t// in\n    tag_26:\n      dup1\n      iszero\n      tag_27\n      jumpi\n      dup1\n      0x1f\n      lt\n      tag_28\n      jumpi\n      0x0100\n      dup1\n      dup4\n      sload\n      div\n      mul\n      dup4\n      mstore\n      swap2\n      0x20\n      add\n      swap2\n      jump(tag_27)\n    tag_28:\n      dup3\n      add\n      swap2\n      swap1\n      0x00\n      mstore\n      keccak256(0x00, 0x20)\n      swap1\n    tag_29:\n      dup2\n      sload\n      dup2\n      mstore\n      swap1\n      0x01\n      add\n      swap1\n      0x20\n      add\n      dup1\n      dup4\n      gt\n      tag_29\n      jumpi\n      dup3\n      swap1\n      sub\n      0x1f\n      and\n      dup3\n      add\n      swap2\n    tag_27:\n      pop\n      pop\n      pop\n      pop\n      pop\n      swap1\n      dup1\n      0x01\n      add\n      sload\n      swap1\n      pop\n      dup3\n      jump\t// out\n        /* \"DepartmentStore.sol\":285:500  function addItems(string memory _studentName, uint256 _studentAge) public {... */\n    tag_15:\n        /* \"DepartmentStore.sol\":369:377  students */\n      0x01\n        /* \"DepartmentStore.sol\":383:445  Students({studentAge: _studentAge, studentName: _studentName}) */\n      mload(0x40)\n      dup1\n      0x40\n      add\n      0x40\n      mstore\n      dup1\n        /* \"DepartmentStore.sol\":431:443  _studentName */\n      dup5\n        /* \"DepartmentStore.sol\":383:445  Students({studentAge: _studentAge, studentName: _studentName}) */\n      dup2\n      mstore\n      0x20\n      add\n        /* \"DepartmentStore.sol\":405:416  _studentAge */\n      dup4\n        /* \"DepartmentStore.sol\":383:445  Students({studentAge: _studentAge, studentName: _studentName}) */\n      dup2\n      mstore\n      pop\n        /* \"DepartmentStore.sol\":369:446  students.push(Students({studentAge: _studentAge, studentName: _studentName})) */\n      swap1\n      dup1\n      0x01\n      dup2\n      sload\n      add\n      dup1\n      dup3\n      sstore\n      dup1\n      swap2\n      pop\n      pop\n      0x01\n      swap1\n      sub\n      swap1\n      0x00\n      mstore\n      keccak256(0x00, 0x20)\n      swap1\n      0x02\n      mul\n      add\n      0x00\n      swap1\n      swap2\n      swap1\n      swap2\n      swap1\n      swap2\n      pop\n      0x00\n      dup3\n      add\n      mload\n      dup2\n      0x00\n      add\n      swap1\n      dup1\n      mload\n      swap1\n      0x20\n      add\n      swap1\n      tag_32\n      swap3\n      swap2\n      swap1\n      tag_33\n      jump\t// in\n    tag_32:\n      pop\n      0x20\n      dup3\n      add\n      mload\n      dup2\n      0x01\n      add\n      sstore\n      pop\n      pop\n        /* \"DepartmentStore.sol\":482:493  _studentAge */\n      dup1\n        /* \"DepartmentStore.sol\":456:465  nameToAge */\n      0x02\n        /* \"DepartmentStore.sol\":466:478  _studentName */\n      dup4\n        /* \"DepartmentStore.sol\":456:479  nameToAge[_studentName] */\n      mload(0x40)\n      tag_34\n      swap2\n      swap1\n      tag_35\n      jump\t// in\n    tag_34:\n      swap1\n      dup2\n      mstore\n      0x20\n      add\n      mload(0x40)\n      dup1\n      swap2\n      sub\n      swap1\n      keccak256\n        /* \"DepartmentStore.sol\":456:493  nameToAge[_studentName] = _studentAge */\n      dup2\n      swap1\n      sstore\n      pop\n        /* \"DepartmentStore.sol\":285:500  function addItems(string memory _studentName, uint256 _studentAge) public {... */\n      pop\n      pop\n      jump\t// out\n        /* \"DepartmentStore.sol\":230:273  mapping(string => uint256) public nameToAge */\n    tag_19:\n      0x02\n      dup2\n      dup1\n      mload\n      0x20\n      dup2\n      add\n      dup3\n      add\n      dup1\n      mload\n      dup5\n      dup3\n      mstore\n      0x20\n      dup4\n      add\n      0x20\n      dup6\n      add\n      keccak256\n      dup2\n      dup4\n      mstore\n      dup1\n      swap6\n      pop\n      pop\n      pop\n      pop\n      pop\n      pop\n      0x00\n      swap2\n      pop\n      swap1\n      pop\n      sload\n      dup2\n      jump\t// out\n    tag_33:\n      dup3\n      dup1\n      sload\n      tag_36\n      swap1\n      tag_25\n      jump\t// in\n    tag_36:\n      swap1\n      0x00\n      mstore\n      keccak256(0x00, 0x20)\n      swap1\n      0x1f\n      add\n      0x20\n      swap1\n      div\n      dup2\n      add\n      swap3\n      dup3\n      tag_38\n      jumpi\n      0x00\n      dup6\n      sstore\n      jump(tag_37)\n    tag_38:\n      dup3\n      0x1f\n      lt\n      tag_39\n      jumpi\n      dup1\n      mload\n      not(0xff)\n      and\n      dup4\n      dup1\n      add\n      or\n      dup6\n      sstore\n      jump(tag_37)\n    tag_39:\n      dup3\n      dup1\n      add\n      0x01\n      add\n      dup6\n      sstore\n      dup3\n      iszero\n      tag_37\n      jumpi\n      swap2\n      dup3\n      add\n    tag_40:\n      dup3\n      dup2\n      gt\n      iszero\n      tag_41\n      jumpi\n      dup3\n      mload\n      dup3\n      sstore\n      swap2\n      0x20\n      add\n      swap2\n      swap1\n      0x01\n      add\n      swap1\n      jump(tag_40)\n    tag_41:\n    tag_37:\n      pop\n      swap1\n      pop\n      tag_42\n      swap2\n      swap1\n      tag_43\n      jump\t// in\n    tag_42:\n      pop\n      swap1\n      jump\t// out\n    tag_43:\n    tag_44:\n      dup1\n      dup3\n      gt\n      iszero\n      tag_45\n      jumpi\n      0x00\n      dup2\n      0x00\n      swap1\n      sstore\n      pop\n      0x01\n      add\n      jump(tag_44)\n    tag_45:\n      pop\n      swap1\n      jump\t// out\n        /* \"#utility.yul\":7:351   */\n    tag_47:\n      0x00\n        /* \"#utility.yul\":110:175   */\n      tag_49\n        /* \"#utility.yul\":125:174   */\n      tag_50\n        /* \"#utility.yul\":167:173   */\n      dup5\n        /* \"#utility.yul\":125:174   */\n      tag_51\n      jump\t// in\n    tag_50:\n        /* \"#utility.yul\":110:175   */\n      tag_52\n      jump\t// in\n    tag_49:\n        /* \"#utility.yul\":101:175   */\n      swap1\n      pop\n        /* \"#utility.yul\":198:204   */\n      dup3\n        /* \"#utility.yul\":191:196   */\n      dup2\n        /* \"#utility.yul\":184:205   */\n      mstore\n        /* \"#utility.yul\":236:240   */\n      0x20\n        /* \"#utility.yul\":229:234   */\n      dup2\n        /* \"#utility.yul\":225:241   */\n      add\n        /* \"#utility.yul\":274:277   */\n      dup5\n        /* \"#utility.yul\":265:271   */\n      dup5\n        /* \"#utility.yul\":260:263   */\n      dup5\n        /* \"#utility.yul\":256:272   */\n      add\n        /* \"#utility.yul\":253:278   */\n      gt\n        /* \"#utility.yul\":250:252   */\n      iszero\n      tag_53\n      jumpi\n        /* \"#utility.yul\":291:292   */\n      0x00\n        /* \"#utility.yul\":288:289   */\n      dup1\n        /* \"#utility.yul\":281:293   */\n      revert\n        /* \"#utility.yul\":250:252   */\n    tag_53:\n        /* \"#utility.yul\":304:345   */\n      tag_54\n        /* \"#utility.yul\":338:344   */\n      dup5\n        /* \"#utility.yul\":333:336   */\n      dup3\n        /* \"#utility.yul\":328:331   */\n      dup6\n        /* \"#utility.yul\":304:345   */\n      tag_55\n      jump\t// in\n    tag_54:\n        /* \"#utility.yul\":91:351   */\n      pop\n      swap4\n      swap3\n      pop\n      pop\n      pop\n      jump\t// out\n        /* \"#utility.yul\":371:644   */\n    tag_56:\n      0x00\n        /* \"#utility.yul\":476:479   */\n      dup3\n        /* \"#utility.yul\":469:473   */\n      0x1f\n        /* \"#utility.yul\":461:467   */\n      dup4\n        /* \"#utility.yul\":457:474   */\n      add\n        /* \"#utility.yul\":453:480   */\n      slt\n        /* \"#utility.yul\":443:445   */\n      tag_58\n      jumpi\n        /* \"#utility.yul\":494:495   */\n      0x00\n        /* \"#utility.yul\":491:492   */\n      dup1\n        /* \"#utility.yul\":484:496   */\n      revert\n        /* \"#utility.yul\":443:445   */\n    tag_58:\n        /* \"#utility.yul\":534:540   */\n      dup2\n        /* \"#utility.yul\":521:541   */\n      calldataload\n        /* \"#utility.yul\":559:638   */\n      tag_59\n        /* \"#utility.yul\":634:637   */\n      dup5\n        /* \"#utility.yul\":626:632   */\n      dup3\n        /* \"#utility.yul\":619:623   */\n      0x20\n        /* \"#utility.yul\":611:617   */\n      dup7\n        /* \"#utility.yul\":607:624   */\n      add\n        /* \"#utility.yul\":559:638   */\n      tag_47\n      jump\t// in\n    tag_59:\n        /* \"#utility.yul\":550:638   */\n      swap2\n      pop\n        /* \"#utility.yul\":433:644   */\n      pop\n      swap3\n      swap2\n      pop\n      pop\n      jump\t// out\n        /* \"#utility.yul\":650:789   */\n    tag_60:\n      0x00\n        /* \"#utility.yul\":734:740   */\n      dup2\n        /* \"#utility.yul\":721:741   */\n      calldataload\n        /* \"#utility.yul\":712:741   */\n      swap1\n      pop\n        /* \"#utility.yul\":750:783   */\n      tag_62\n        /* \"#utility.yul\":777:782   */\n      dup2\n        /* \"#utility.yul\":750:783   */\n      tag_63\n      jump\t// in\n    tag_62:\n        /* \"#utility.yul\":702:789   */\n      swap3\n      swap2\n      pop\n      pop\n      jump\t// out\n        /* \"#utility.yul\":795:1170   */\n    tag_18:\n      0x00\n        /* \"#utility.yul\":913:915   */\n      0x20\n        /* \"#utility.yul\":901:910   */\n      dup3\n        /* \"#utility.yul\":892:899   */\n      dup5\n        /* \"#utility.yul\":888:911   */\n      sub\n        /* \"#utility.yul\":884:916   */\n      slt\n        /* \"#utility.yul\":881:883   */\n      iszero\n      tag_65\n      jumpi\n        /* \"#utility.yul\":929:930   */\n      0x00\n        /* \"#utility.yul\":926:927   */\n      dup1\n        /* \"#utility.yul\":919:931   */\n      revert\n        /* \"#utility.yul\":881:883   */\n    tag_65:\n        /* \"#utility.yul\":1000:1001   */\n      0x00\n        /* \"#utility.yul\":989:998   */\n      dup3\n        /* \"#utility.yul\":985:1002   */\n      add\n        /* \"#utility.yul\":972:1003   */\n      calldataload\n        /* \"#utility.yul\":1030:1048   */\n      0xffffffffffffffff\n        /* \"#utility.yul\":1022:1028   */\n      dup2\n        /* \"#utility.yul\":1019:1049   */\n      gt\n        /* \"#utility.yul\":1016:1018   */\n      iszero\n      tag_66\n      jumpi\n        /* \"#utility.yul\":1062:1063   */\n      0x00\n        /* \"#utility.yul\":1059:1060   */\n      dup1\n        /* \"#utility.yul\":1052:1064   */\n      revert\n        /* \"#utility.yul\":1016:1018   */\n    tag_66:\n        /* \"#utility.yul\":1090:1153   */\n      tag_67\n        /* \"#utility.yul\":1145:1152   */\n      dup5\n        /* \"#utility.yul\":1136:1142   */\n      dup3\n        /* \"#utility.yul\":1125:1134   */\n      dup6\n        /* \"#utility.yul\":1121:1143   */\n      add\n        /* \"#utility.yul\":1090:1153   */\n      tag_56\n      jump\t// in\n    tag_67:\n        /* \"#utility.yul\":1080:1153   */\n      swap2\n      pop\n        /* \"#utility.yul\":943:1163   */\n      pop\n        /* \"#utility.yul\":871:1170   */\n      swap3\n      swap2\n      pop\n      pop\n      jump\t// out\n        /* \"#utility.yul\":1176:1696   */\n    tag_14:\n      0x00\n      dup1\n        /* \"#utility.yul\":1311:1313   */\n      0x40\n        /* \"#utility.yul\":1299:1308   */\n      dup4\n        /* \"#utility.yul\":1290:1297   */\n      dup6\n        /* \"#utility.yul\":1286:1309   */\n      sub\n        /* \"#utility.yul\":1282:1314   */\n      slt\n        /* \"#utility.yul\":1279:1281   */\n      iszero\n      tag_69\n      jumpi\n        /* \"#utility.yul\":1327:1328   */\n      0x00\n        /* \"#utility.yul\":1324:1325   */\n      dup1\n        /* \"#utility.yul\":1317:1329   */\n      revert\n        /* \"#utility.yul\":1279:1281   */\n    tag_69:\n        /* \"#utility.yul\":1398:1399   */\n      0x00\n        /* \"#utility.yul\":1387:1396   */\n      dup4\n        /* \"#utility.yul\":1383:1400   */\n      add\n        /* \"#utility.yul\":1370:1401   */\n      calldataload\n        /* \"#utility.yul\":1428:1446   */\n      0xffffffffffffffff\n        /* \"#utility.yul\":1420:1426   */\n      dup2\n        /* \"#utility.yul\":1417:1447   */\n      gt\n        /* \"#utility.yul\":1414:1416   */\n      iszero\n      tag_70\n      jumpi\n        /* \"#utility.yul\":1460:1461   */\n      0x00\n        /* \"#utility.yul\":1457:1458   */\n      dup1\n        /* \"#utility.yul\":1450:1462   */\n      revert\n        /* \"#utility.yul\":1414:1416   */\n    tag_70:\n        /* \"#utility.yul\":1488:1551   */\n      tag_71\n        /* \"#utility.yul\":1543:1550   */\n      dup6\n        /* \"#utility.yul\":1534:1540   */\n      dup3\n        /* \"#utility.yul\":1523:1532   */\n      dup7\n        /* \"#utility.yul\":1519:1541   */\n      add\n        /* \"#utility.yul\":1488:1551   */\n      tag_56\n      jump\t// in\n    tag_71:\n        /* \"#utility.yul\":1478:1551   */\n      swap3\n      pop\n        /* \"#utility.yul\":1341:1561   */\n      pop\n        /* \"#utility.yul\":1600:1602   */\n      0x20\n        /* \"#utility.yul\":1626:1679   */\n      tag_72\n        /* \"#utility.yul\":1671:1678   */\n      dup6\n        /* \"#utility.yul\":1662:1668   */\n      dup3\n        /* \"#utility.yul\":1651:1660   */\n      dup7\n        /* \"#utility.yul\":1647:1669   */\n      add\n        /* \"#utility.yul\":1626:1679   */\n      tag_60\n      jump\t// in\n    tag_72:\n        /* \"#utility.yul\":1616:1679   */\n      swap2\n      pop\n        /* \"#utility.yul\":1571:1689   */\n      pop\n        /* \"#utility.yul\":1269:1696   */\n      swap3\n      pop\n      swap3\n      swap1\n      pop\n      jump\t// out\n        /* \"#utility.yul\":1702:1964   */\n    tag_8:\n      0x00\n        /* \"#utility.yul\":1810:1812   */\n      0x20\n        /* \"#utility.yul\":1798:1807   */\n      dup3\n        /* \"#utility.yul\":1789:1796   */\n      dup5\n        /* \"#utility.yul\":1785:1808   */\n      sub\n        /* \"#utility.yul\":1781:1813   */\n      slt\n        /* \"#utility.yul\":1778:1780   */\n      iszero\n      tag_74\n      jumpi\n        /* \"#utility.yul\":1826:1827   */\n      0x00\n        /* \"#utility.yul\":1823:1824   */\n      dup1\n        /* \"#utility.yul\":1816:1828   */\n      revert\n        /* \"#utility.yul\":1778:1780   */\n    tag_74:\n        /* \"#utility.yul\":1869:1870   */\n      0x00\n        /* \"#utility.yul\":1894:1947   */\n      tag_75\n        /* \"#utility.yul\":1939:1946   */\n      dup5\n        /* \"#utility.yul\":1930:1936   */\n      dup3\n        /* \"#utility.yul\":1919:1928   */\n      dup6\n        /* \"#utility.yul\":1915:1937   */\n      add\n        /* \"#utility.yul\":1894:1947   */\n      tag_60\n      jump\t// in\n    tag_75:\n        /* \"#utility.yul\":1884:1947   */\n      swap2\n      pop\n        /* \"#utility.yul\":1840:1957   */\n      pop\n        /* \"#utility.yul\":1768:1964   */\n      swap3\n      swap2\n      pop\n      pop\n      jump\t// out\n        /* \"#utility.yul\":1970:2334   */\n    tag_76:\n      0x00\n        /* \"#utility.yul\":2086:2125   */\n      tag_78\n        /* \"#utility.yul\":2119:2124   */\n      dup3\n        /* \"#utility.yul\":2086:2125   */\n      tag_79\n      jump\t// in\n    tag_78:\n        /* \"#utility.yul\":2141:2212   */\n      tag_80\n        /* \"#utility.yul\":2205:2211   */\n      dup2\n        /* \"#utility.yul\":2200:2203   */\n      dup6\n        /* \"#utility.yul\":2141:2212   */\n      tag_81\n      jump\t// in\n    tag_80:\n        /* \"#utility.yul\":2134:2212   */\n      swap4\n      pop\n        /* \"#utility.yul\":2221:2273   */\n      tag_82\n        /* \"#utility.yul\":2266:2272   */\n      dup2\n        /* \"#utility.yul\":2261:2264   */\n      dup6\n        /* \"#utility.yul\":2254:2258   */\n      0x20\n        /* \"#utility.yul\":2247:2252   */\n      dup7\n        /* \"#utility.yul\":2243:2259   */\n      add\n        /* \"#utility.yul\":2221:2273   */\n      tag_83\n      jump\t// in\n    tag_82:\n        /* \"#utility.yul\":2298:2327   */\n      tag_84\n        /* \"#utility.yul\":2320:2326   */\n      dup2\n        /* \"#utility.yul\":2298:2327   */\n      tag_85\n      jump\t// in\n    tag_84:\n        /* \"#utility.yul\":2293:2296   */\n      dup5\n        /* \"#utility.yul\":2289:2328   */\n      add\n        /* \"#utility.yul\":2282:2328   */\n      swap2\n      pop\n        /* \"#utility.yul\":2062:2334   */\n      pop\n      swap3\n      swap2\n      pop\n      pop\n      jump\t// out\n        /* \"#utility.yul\":2340:2717   */\n    tag_86:\n      0x00\n        /* \"#utility.yul\":2474:2513   */\n      tag_88\n        /* \"#utility.yul\":2507:2512   */\n      dup3\n        /* \"#utility.yul\":2474:2513   */\n      tag_79\n      jump\t// in\n    tag_88:\n        /* \"#utility.yul\":2529:2618   */\n      tag_89\n        /* \"#utility.yul\":2611:2617   */\n      dup2\n        /* \"#utility.yul\":2606:2609   */\n      dup6\n        /* \"#utility.yul\":2529:2618   */\n      tag_90\n      jump\t// in\n    tag_89:\n        /* \"#utility.yul\":2522:2618   */\n      swap4\n      pop\n        /* \"#utility.yul\":2627:2679   */\n      tag_91\n        /* \"#utility.yul\":2672:2678   */\n      dup2\n        /* \"#utility.yul\":2667:2670   */\n      dup6\n        /* \"#utility.yul\":2660:2664   */\n      0x20\n        /* \"#utility.yul\":2653:2658   */\n      dup7\n        /* \"#utility.yul\":2649:2665   */\n      add\n        /* \"#utility.yul\":2627:2679   */\n      tag_83\n      jump\t// in\n    tag_91:\n        /* \"#utility.yul\":2704:2710   */\n      dup1\n        /* \"#utility.yul\":2699:2702   */\n      dup5\n        /* \"#utility.yul\":2695:2711   */\n      add\n        /* \"#utility.yul\":2688:2711   */\n      swap2\n      pop\n        /* \"#utility.yul\":2450:2717   */\n      pop\n      swap3\n      swap2\n      pop\n      pop\n      jump\t// out\n        /* \"#utility.yul\":2723:2841   */\n    tag_92:\n        /* \"#utility.yul\":2810:2834   */\n      tag_94\n        /* \"#utility.yul\":2828:2833   */\n      dup2\n        /* \"#utility.yul\":2810:2834   */\n      tag_95\n      jump\t// in\n    tag_94:\n        /* \"#utility.yul\":2805:2808   */\n      dup3\n        /* \"#utility.yul\":2798:2835   */\n      mstore\n        /* \"#utility.yul\":2788:2841   */\n      pop\n      pop\n      jump\t// out\n        /* \"#utility.yul\":2847:3122   */\n    tag_35:\n      0x00\n        /* \"#utility.yul\":3001:3096   */\n      tag_97\n        /* \"#utility.yul\":3092:3095   */\n      dup3\n        /* \"#utility.yul\":3083:3089   */\n      dup5\n        /* \"#utility.yul\":3001:3096   */\n      tag_86\n      jump\t// in\n    tag_97:\n        /* \"#utility.yul\":2994:3096   */\n      swap2\n      pop\n        /* \"#utility.yul\":3113:3116   */\n      dup2\n        /* \"#utility.yul\":3106:3116   */\n      swap1\n      pop\n        /* \"#utility.yul\":2983:3122   */\n      swap3\n      swap2\n      pop\n      pop\n      jump\t// out\n        /* \"#utility.yul\":3128:3551   */\n    tag_11:\n      0x00\n        /* \"#utility.yul\":3307:3309   */\n      0x40\n        /* \"#utility.yul\":3296:3305   */\n      dup3\n        /* \"#utility.yul\":3292:3310   */\n      add\n        /* \"#utility.yul\":3284:3310   */\n      swap1\n      pop\n        /* \"#utility.yul\":3356:3365   */\n      dup2\n        /* \"#utility.yul\":3350:3354   */\n      dup2\n        /* \"#utility.yul\":3346:3366   */\n      sub\n        /* \"#utility.yul\":3342:3343   */\n      0x00\n        /* \"#utility.yul\":3331:3340   */\n      dup4\n        /* \"#utility.yul\":3327:3344   */\n      add\n        /* \"#utility.yul\":3320:3367   */\n      mstore\n        /* \"#utility.yul\":3384:3462   */\n      tag_99\n        /* \"#utility.yul\":3457:3461   */\n      dup2\n        /* \"#utility.yul\":3448:3454   */\n      dup6\n        /* \"#utility.yul\":3384:3462   */\n      tag_76\n      jump\t// in\n    tag_99:\n        /* \"#utility.yul\":3376:3462   */\n      swap1\n      pop\n        /* \"#utility.yul\":3472:3544   */\n      tag_100\n        /* \"#utility.yul\":3540:3542   */\n      0x20\n        /* \"#utility.yul\":3529:3538   */\n      dup4\n        /* \"#utility.yul\":3525:3543   */\n      add\n        /* \"#utility.yul\":3516:3522   */\n      dup5\n        /* \"#utility.yul\":3472:3544   */\n      tag_92\n      jump\t// in\n    tag_100:\n        /* \"#utility.yul\":3274:3551   */\n      swap4\n      swap3\n      pop\n      pop\n      pop\n      jump\t// out\n        /* \"#utility.yul\":3557:3779   */\n    tag_21:\n      0x00\n        /* \"#utility.yul\":3688:3690   */\n      0x20\n        /* \"#utility.yul\":3677:3686   */\n      dup3\n        /* \"#utility.yul\":3673:3691   */\n      add\n        /* \"#utility.yul\":3665:3691   */\n      swap1\n      pop\n        /* \"#utility.yul\":3701:3772   */\n      tag_102\n        /* \"#utility.yul\":3769:3770   */\n      0x00\n        /* \"#utility.yul\":3758:3767   */\n      dup4\n        /* \"#utility.yul\":3754:3771   */\n      add\n        /* \"#utility.yul\":3745:3751   */\n      dup5\n        /* \"#utility.yul\":3701:3772   */\n      tag_92\n      jump\t// in\n    tag_102:\n        /* \"#utility.yul\":3655:3779   */\n      swap3\n      swap2\n      pop\n      pop\n      jump\t// out\n        /* \"#utility.yul\":3785:4068   */\n    tag_52:\n      0x00\n        /* \"#utility.yul\":3851:3853   */\n      0x40\n        /* \"#utility.yul\":3845:3854   */\n      mload\n        /* \"#utility.yul\":3835:3854   */\n      swap1\n      pop\n        /* \"#utility.yul\":3893:3897   */\n      dup2\n        /* \"#utility.yul\":3885:3891   */\n      dup2\n        /* \"#utility.yul\":3881:3898   */\n      add\n        /* \"#utility.yul\":4000:4006   */\n      dup2\n        /* \"#utility.yul\":3988:3998   */\n      dup2\n        /* \"#utility.yul\":3985:4007   */\n      lt\n        /* \"#utility.yul\":3964:3982   */\n      0xffffffffffffffff\n        /* \"#utility.yul\":3952:3962   */\n      dup3\n        /* \"#utility.yul\":3949:3983   */\n      gt\n        /* \"#utility.yul\":3946:4008   */\n      or\n        /* \"#utility.yul\":3943:3945   */\n      iszero\n      tag_104\n      jumpi\n        /* \"#utility.yul\":4011:4029   */\n      tag_105\n      tag_106\n      jump\t// in\n    tag_105:\n        /* \"#utility.yul\":3943:3945   */\n    tag_104:\n        /* \"#utility.yul\":4051:4061   */\n      dup1\n        /* \"#utility.yul\":4047:4049   */\n      0x40\n        /* \"#utility.yul\":4040:4062   */\n      mstore\n        /* \"#utility.yul\":3825:4068   */\n      pop\n      swap2\n      swap1\n      pop\n      jump\t// out\n        /* \"#utility.yul\":4074:4406   */\n    tag_51:\n      0x00\n        /* \"#utility.yul\":4226:4244   */\n      0xffffffffffffffff\n        /* \"#utility.yul\":4218:4224   */\n      dup3\n        /* \"#utility.yul\":4215:4245   */\n      gt\n        /* \"#utility.yul\":4212:4214   */\n      iszero\n      tag_108\n      jumpi\n        /* \"#utility.yul\":4248:4266   */\n      tag_109\n      tag_106\n      jump\t// in\n    tag_109:\n        /* \"#utility.yul\":4212:4214   */\n    tag_108:\n        /* \"#utility.yul\":4333:4337   */\n      0x1f\n        /* \"#utility.yul\":4329:4338   */\n      not\n        /* \"#utility.yul\":4322:4326   */\n      0x1f\n        /* \"#utility.yul\":4314:4320   */\n      dup4\n        /* \"#utility.yul\":4310:4327   */\n      add\n        /* \"#utility.yul\":4306:4339   */\n      and\n        /* \"#utility.yul\":4298:4339   */\n      swap1\n      pop\n        /* \"#utility.yul\":4394:4398   */\n      0x20\n        /* \"#utility.yul\":4388:4392   */\n      dup2\n        /* \"#utility.yul\":4384:4399   */\n      add\n        /* \"#utility.yul\":4376:4399   */\n      swap1\n      pop\n        /* \"#utility.yul\":4141:4406   */\n      swap2\n      swap1\n      pop\n      jump\t// out\n        /* \"#utility.yul\":4412:4511   */\n    tag_79:\n      0x00\n        /* \"#utility.yul\":4498:4503   */\n      dup2\n        /* \"#utility.yul\":4492:4504   */\n      mload\n        /* \"#utility.yul\":4482:4504   */\n      swap1\n      pop\n        /* \"#utility.yul\":4471:4511   */\n      swap2\n      swap1\n      pop\n      jump\t// out\n        /* \"#utility.yul\":4517:4686   */\n    tag_81:\n      0x00\n        /* \"#utility.yul\":4635:4641   */\n      dup3\n        /* \"#utility.yul\":4630:4633   */\n      dup3\n        /* \"#utility.yul\":4623:4642   */\n      mstore\n        /* \"#utility.yul\":4675:4679   */\n      0x20\n        /* \"#utility.yul\":4670:4673   */\n      dup3\n        /* \"#utility.yul\":4666:4680   */\n      add\n        /* \"#utility.yul\":4651:4680   */\n      swap1\n      pop\n        /* \"#utility.yul\":4613:4686   */\n      swap3\n      swap2\n      pop\n      pop\n      jump\t// out\n        /* \"#utility.yul\":4692:4840   */\n    tag_90:\n      0x00\n        /* \"#utility.yul\":4831:4834   */\n      dup2\n        /* \"#utility.yul\":4816:4834   */\n      swap1\n      pop\n        /* \"#utility.yul\":4806:4840   */\n      swap3\n      swap2\n      pop\n      pop\n      jump\t// out\n        /* \"#utility.yul\":4846:4923   */\n    tag_95:\n      0x00\n        /* \"#utility.yul\":4912:4917   */\n      dup2\n        /* \"#utility.yul\":4901:4917   */\n      swap1\n      pop\n        /* \"#utility.yul\":4891:4923   */\n      swap2\n      swap1\n      pop\n      jump\t// out\n        /* \"#utility.yul\":4929:5083   */\n    tag_55:\n        /* \"#utility.yul\":5013:5019   */\n      dup3\n        /* \"#utility.yul\":5008:5011   */\n      dup2\n        /* \"#utility.yul\":5003:5006   */\n      dup4\n        /* \"#utility.yul\":4990:5020   */\n      calldatacopy\n        /* \"#utility.yul\":5075:5076   */\n      0x00\n        /* \"#utility.yul\":5066:5072   */\n      dup4\n        /* \"#utility.yul\":5061:5064   */\n      dup4\n        /* \"#utility.yul\":5057:5073   */\n      add\n        /* \"#utility.yul\":5050:5077   */\n      mstore\n        /* \"#utility.yul\":4980:5083   */\n      pop\n      pop\n      pop\n      jump\t// out\n        /* \"#utility.yul\":5089:5396   */\n    tag_83:\n        /* \"#utility.yul\":5157:5158   */\n      0x00\n        /* \"#utility.yul\":5167:5280   */\n    tag_116:\n        /* \"#utility.yul\":5181:5187   */\n      dup4\n        /* \"#utility.yul\":5178:5179   */\n      dup2\n        /* \"#utility.yul\":5175:5188   */\n      lt\n        /* \"#utility.yul\":5167:5280   */\n      iszero\n      tag_118\n      jumpi\n        /* \"#utility.yul\":5266:5267   */\n      dup1\n        /* \"#utility.yul\":5261:5264   */\n      dup3\n        /* \"#utility.yul\":5257:5268   */\n      add\n        /* \"#utility.yul\":5251:5269   */\n      mload\n        /* \"#utility.yul\":5247:5248   */\n      dup2\n        /* \"#utility.yul\":5242:5245   */\n      dup5\n        /* \"#utility.yul\":5238:5249   */\n      add\n        /* \"#utility.yul\":5231:5270   */\n      mstore\n        /* \"#utility.yul\":5203:5205   */\n      0x20\n        /* \"#utility.yul\":5200:5201   */\n      dup2\n        /* \"#utility.yul\":5196:5206   */\n      add\n        /* \"#utility.yul\":5191:5206   */\n      swap1\n      pop\n        /* \"#utility.yul\":5167:5280   */\n      jump(tag_116)\n    tag_118:\n        /* \"#utility.yul\":5298:5304   */\n      dup4\n        /* \"#utility.yul\":5295:5296   */\n      dup2\n        /* \"#utility.yul\":5292:5305   */\n      gt\n        /* \"#utility.yul\":5289:5291   */\n      iszero\n      tag_119\n      jumpi\n        /* \"#utility.yul\":5378:5379   */\n      0x00\n        /* \"#utility.yul\":5369:5375   */\n      dup5\n        /* \"#utility.yul\":5364:5367   */\n      dup5\n        /* \"#utility.yul\":5360:5376   */\n      add\n        /* \"#utility.yul\":5353:5380   */\n      mstore\n        /* \"#utility.yul\":5289:5291   */\n    tag_119:\n        /* \"#utility.yul\":5138:5396   */\n      pop\n      pop\n      pop\n      pop\n      jump\t// out\n        /* \"#utility.yul\":5402:5722   */\n    tag_25:\n      0x00\n        /* \"#utility.yul\":5483:5484   */\n      0x02\n        /* \"#utility.yul\":5477:5481   */\n      dup3\n        /* \"#utility.yul\":5473:5485   */\n      div\n        /* \"#utility.yul\":5463:5485   */\n      swap1\n      pop\n        /* \"#utility.yul\":5530:5531   */\n      0x01\n        /* \"#utility.yul\":5524:5528   */\n      dup3\n        /* \"#utility.yul\":5520:5532   */\n      and\n        /* \"#utility.yul\":5551:5569   */\n      dup1\n        /* \"#utility.yul\":5541:5543   */\n      tag_121\n      jumpi\n        /* \"#utility.yul\":5607:5611   */\n      0x7f\n        /* \"#utility.yul\":5599:5605   */\n      dup3\n        /* \"#utility.yul\":5595:5612   */\n      and\n        /* \"#utility.yul\":5585:5612   */\n      swap2\n      pop\n        /* \"#utility.yul\":5541:5543   */\n    tag_121:\n        /* \"#utility.yul\":5669:5671   */\n      0x20\n        /* \"#utility.yul\":5661:5667   */\n      dup3\n        /* \"#utility.yul\":5658:5672   */\n      lt\n        /* \"#utility.yul\":5638:5656   */\n      dup2\n        /* \"#utility.yul\":5635:5673   */\n      eq\n        /* \"#utility.yul\":5632:5634   */\n      iszero\n      tag_122\n      jumpi\n        /* \"#utility.yul\":5688:5706   */\n      tag_123\n      tag_124\n      jump\t// in\n    tag_123:\n        /* \"#utility.yul\":5632:5634   */\n    tag_122:\n        /* \"#utility.yul\":5453:5722   */\n      pop\n      swap2\n      swap1\n      pop\n      jump\t// out\n        /* \"#utility.yul\":5728:5908   */\n    tag_124:\n        /* \"#utility.yul\":5776:5853   */\n      0x4e487b7100000000000000000000000000000000000000000000000000000000\n        /* \"#utility.yul\":5773:5774   */\n      0x00\n        /* \"#utility.yul\":5766:5854   */\n      mstore\n        /* \"#utility.yul\":5873:5877   */\n      0x22\n        /* \"#utility.yul\":5870:5871   */\n      0x04\n        /* \"#utility.yul\":5863:5878   */\n      mstore\n        /* \"#utility.yul\":5897:5901   */\n      0x24\n        /* \"#utility.yul\":5894:5895   */\n      0x00\n        /* \"#utility.yul\":5887:5902   */\n      revert\n        /* \"#utility.yul\":5914:6094   */\n    tag_106:\n        /* \"#utility.yul\":5962:6039   */\n      0x4e487b7100000000000000000000000000000000000000000000000000000000\n        /* \"#utility.yul\":5959:5960   */\n      0x00\n        /* \"#utility.yul\":5952:6040   */\n      mstore\n        /* \"#utility.yul\":6059:6063   */\n      0x41\n        /* \"#utility.yul\":6056:6057   */\n      0x04\n        /* \"#utility.yul\":6049:6064   */\n      mstore\n        /* \"#utility.yul\":6083:6087   */\n      0x24\n        /* \"#utility.yul\":6080:6081   */\n      0x00\n        /* \"#utility.yul\":6073:6088   */\n      revert\n        /* \"#utility.yul\":6100:6202   */\n    tag_85:\n      0x00\n        /* \"#utility.yul\":6192:6194   */\n      0x1f\n        /* \"#utility.yul\":6188:6195   */\n      not\n        /* \"#utility.yul\":6183:6185   */\n      0x1f\n        /* \"#utility.yul\":6176:6181   */\n      dup4\n        /* \"#utility.yul\":6172:6186   */\n      add\n        /* \"#utility.yul\":6168:6196   */\n      and\n        /* \"#utility.yul\":6158:6196   */\n      swap1\n      pop\n        /* \"#utility.yul\":6148:6202   */\n      swap2\n      swap1\n      pop\n      jump\t// out\n        /* \"#utility.yul\":6208:6330   */\n    tag_63:\n        /* \"#utility.yul\":6281:6305   */\n      tag_129\n        /* \"#utility.yul\":6299:6304   */\n      dup2\n        /* \"#utility.yul\":6281:6305   */\n      tag_95\n      jump\t// in\n    tag_129:\n        /* \"#utility.yul\":6274:6279   */\n      dup2\n        /* \"#utility.yul\":6271:6306   */\n      eq\n        /* \"#utility.yul\":6261:6263   */\n      tag_130\n      jumpi\n        /* \"#utility.yul\":6320:6321   */\n      0x00\n        /* \"#utility.yul\":6317:6318   */\n      dup1\n        /* \"#utility.yul\":6310:6322   */\n      revert\n        /* \"#utility.yul\":6261:6263   */\n    tag_130:\n        /* \"#utility.yul\":6251:6330   */\n      pop\n      jump\t// out\n\n    auxdata: 0xa2646970667358221220df14d0a755301f4a8149c94199adf78d5f2698dde981758e71428c92aece7c5f64736f6c63430008000033\n}\n",
				"bytecode": {
					"linkReferences": {},
					"object": "608060405234801561001057600080fd5b506106b8806100206000396000f3fe608060405234801561001057600080fd5b50600436106100415760003560e01c806306ead22e1461004657806307c4733a1461007757806390c3ee4d14610093575b600080fd5b610060600480360381019061005b91906103f2565b6100c3565b60405161006e9291906104ab565b60405180910390f35b610091600480360381019061008c919061039e565b61017f565b005b6100ad60048036038101906100a8919061035d565b61020f565b6040516100ba91906104db565b60405180910390f35b600181815481106100d357600080fd5b90600052602060002090600202016000915090508060000180546100f6906105ca565b80601f0160208091040260200160405190810160405280929190818152602001828054610122906105ca565b801561016f5780601f106101445761010080835404028352916020019161016f565b820191906000526020600020905b81548152906001019060200180831161015257829003601f168201915b5050505050908060010154905082565b6001604051806040016040528084815260200183815250908060018154018082558091505060019003906000526020600020906002020160009091909190915060008201518160000190805190602001906101db92919061023d565b50602082015181600101555050806002836040516101f99190610494565b9081526020016040518091039020819055505050565b6002818051602081018201805184825260208301602085012081835280955050505050506000915090505481565b828054610249906105ca565b90600052602060002090601f01602090048101928261026b57600085556102b2565b82601f1061028457805160ff19168380011785556102b2565b828001600101855582156102b2579182015b828111156102b1578251825591602001919060010190610296565b5b5090506102bf91906102c3565b5090565b5b808211156102dc5760008160009055506001016102c4565b5090565b60006102f36102ee84610527565b6104f6565b90508281526020810184848401111561030b57600080fd5b610316848285610588565b509392505050565b600082601f83011261032f57600080fd5b813561033f8482602086016102e0565b91505092915050565b6000813590506103578161066b565b92915050565b60006020828403121561036f57600080fd5b600082013567ffffffffffffffff81111561038957600080fd5b6103958482850161031e565b91505092915050565b600080604083850312156103b157600080fd5b600083013567ffffffffffffffff8111156103cb57600080fd5b6103d78582860161031e565b92505060206103e885828601610348565b9150509250929050565b60006020828403121561040457600080fd5b600061041284828501610348565b91505092915050565b600061042682610557565b6104308185610562565b9350610440818560208601610597565b6104498161065a565b840191505092915050565b600061045f82610557565b6104698185610573565b9350610479818560208601610597565b80840191505092915050565b61048e8161057e565b82525050565b60006104a08284610454565b915081905092915050565b600060408201905081810360008301526104c5818561041b565b90506104d46020830184610485565b9392505050565b60006020820190506104f06000830184610485565b92915050565b6000604051905081810181811067ffffffffffffffff8211171561051d5761051c61062b565b5b8060405250919050565b600067ffffffffffffffff8211156105425761054161062b565b5b601f19601f8301169050602081019050919050565b600081519050919050565b600082825260208201905092915050565b600081905092915050565b6000819050919050565b82818337600083830152505050565b60005b838110156105b557808201518184015260208101905061059a565b838111156105c4576000848401525b50505050565b600060028204905060018216806105e257607f821691505b602082108114156105f6576105f56105fc565b5b50919050565b7f4e487b7100000000000000000000000000000000000000000000000000000000600052602260045260246000fd5b7f4e487b7100000000000000000000000000000000000000000000000000000000600052604160045260246000fd5b6000601f19601f8301169050919050565b6106748161057e565b811461067f57600080fd5b5056fea2646970667358221220df14d0a755301f4a8149c94199adf78d5f2698dde981758e71428c92aece7c5f64736f6c63430008000033",
					"opcodes": "PUSH1 0x80 PUSH1 0x40 MSTORE CALLVALUE DUP1 ISZERO PUSH2 0x10 JUMPI PUSH1 0x0 DUP1 REVERT JUMPDEST POP PUSH2 0x6B8 DUP1 PUSH2 0x20 PUSH1 0x0 CODECOPY PUSH1 0x0 RETURN INVALID PUSH1 0x80 PUSH1 0x40 MSTORE CALLVALUE DUP1 ISZERO PUSH2 0x10 JUMPI PUSH1 0x0 DUP1 REVERT JUMPDEST POP PUSH1 0x4 CALLDATASIZE LT PUSH2 0x41 JUMPI PUSH1 0x0 CALLDATALOAD PUSH1 0xE0 SHR DUP1 PUSH4 0x6EAD22E EQ PUSH2 0x46 JUMPI DUP1 PUSH4 0x7C4733A EQ PUSH2 0x77 JUMPI DUP1 PUSH4 0x90C3EE4D EQ PUSH2 0x93 JUMPI JUMPDEST PUSH1 0x0 DUP1 REVERT JUMPDEST PUSH2 0x60 PUSH1 0x4 DUP1 CALLDATASIZE SUB DUP2 ADD SWAP1 PUSH2 0x5B SWAP2 SWAP1 PUSH2 0x3F2 JUMP JUMPDEST PUSH2 0xC3 JUMP JUMPDEST PUSH1 0x40 MLOAD PUSH2 0x6E SWAP3 SWAP2 SWAP1 PUSH2 0x4AB JUMP JUMPDEST PUSH1 0x40 MLOAD DUP1 SWAP2 SUB SWAP1 RETURN JUMPDEST PUSH2 0x91 PUSH1 0x4 DUP1 CALLDATASIZE SUB DUP2 ADD SWAP1 PUSH2 0x8C SWAP2 SWAP1 PUSH2 0x39E JUMP JUMPDEST PUSH2 0x17F JUMP JUMPDEST STOP JUMPDEST PUSH2 0xAD PUSH1 0x4 DUP1 CALLDATASIZE SUB DUP2 ADD SWAP1 PUSH2 0xA8 SWAP2 SWAP1 PUSH2 0x35D JUMP JUMPDEST PUSH2 0x20F JUMP JUMPDEST PUSH1 0x40 MLOAD PUSH2 0xBA SWAP2 SWAP1 PUSH2 0x4DB JUMP JUMPDEST PUSH1 0x40 MLOAD DUP1 SWAP2 SUB SWAP1 RETURN JUMPDEST PUSH1 0x1 DUP2 DUP2 SLOAD DUP2 LT PUSH2 0xD3 JUMPI PUSH1 0x0 DUP1 REVERT JUMPDEST SWAP1 PUSH1 0x0 MSTORE PUSH1 0x20 PUSH1 0x0 KECCAK256 SWAP1 PUSH1 0x2 MUL ADD PUSH1 0x0 SWAP2 POP SWAP1 POP DUP1 PUSH1 0x0 ADD DUP1 SLOAD PUSH2 0xF6 SWAP1 PUSH2 0x5CA JUMP JUMPDEST DUP1 PUSH1 0x1F ADD PUSH1 0x20 DUP1 SWAP2 DIV MUL PUSH1 0x20 ADD PUSH1 0x40 MLOAD SWAP1 DUP2 ADD PUSH1 0x40 MSTORE DUP1 SWAP3 SWAP2 SWAP1 DUP2 DUP2 MSTORE PUSH1 0x20 ADD DUP3 DUP1 SLOAD PUSH2 0x122 SWAP1 PUSH2 0x5CA JUMP JUMPDEST DUP1 ISZERO PUSH2 0x16F JUMPI DUP1 PUSH1 0x1F LT PUSH2 0x144 JUMPI PUSH2 0x100 DUP1 DUP4 SLOAD DIV MUL DUP4 MSTORE SWAP2 PUSH1 0x20 ADD SWAP2 PUSH2 0x16F JUMP JUMPDEST DUP3 ADD SWAP2 SWAP1 PUSH1 0x0 MSTORE PUSH1 0x20 PUSH1 0x0 KECCAK256 SWAP1 JUMPDEST DUP2 SLOAD DUP2 MSTORE SWAP1 PUSH1 0x1 ADD SWAP1 PUSH1 0x20 ADD DUP1 DUP4 GT PUSH2 0x152 JUMPI DUP3 SWAP1 SUB PUSH1 0x1F AND DUP3 ADD SWAP2 JUMPDEST POP POP POP POP POP SWAP1 DUP1 PUSH1 0x1 ADD SLOAD SWAP1 POP DUP3 JUMP JUMPDEST PUSH1 0x1 PUSH1 0x40 MLOAD DUP1 PUSH1 0x40 ADD PUSH1 0x40 MSTORE DUP1 DUP5 DUP2 MSTORE PUSH1 0x20 ADD DUP4 DUP2 MSTORE POP SWAP1 DUP1 PUSH1 0x1 DUP2 SLOAD ADD DUP1 DUP3 SSTORE DUP1 SWAP2 POP POP PUSH1 0x1 SWAP1 SUB SWAP1 PUSH1 0x0 MSTORE PUSH1 0x20 PUSH1 0x0 KECCAK256 SWAP1 PUSH1 0x2 MUL ADD PUSH1 0x0 SWAP1 SWAP2 SWAP1 SWAP2 SWAP1 SWAP2 POP PUSH1 0x0 DUP3 ADD MLOAD DUP2 PUSH1 0x0 ADD SWAP1 DUP1 MLOAD SWAP1 PUSH1 0x20 ADD SWAP1 PUSH2 0x1DB SWAP3 SWAP2 SWAP1 PUSH2 0x23D JUMP JUMPDEST POP PUSH1 0x20 DUP3 ADD MLOAD DUP2 PUSH1 0x1 ADD SSTORE POP POP DUP1 PUSH1 0x2 DUP4 PUSH1 0x40 MLOAD PUSH2 0x1F9 SWAP2 SWAP1 PUSH2 0x494 JUMP JUMPDEST SWAP1 DUP2 MSTORE PUSH1 0x20 ADD PUSH1 0x40 MLOAD DUP1 SWAP2 SUB SWAP1 KECCAK256 DUP2 SWAP1 SSTORE POP POP POP JUMP JUMPDEST PUSH1 0x2 DUP2 DUP1 MLOAD PUSH1 0x20 DUP2 ADD DUP3 ADD DUP1 MLOAD DUP5 DUP3 MSTORE PUSH1 0x20 DUP4 ADD PUSH1 0x20 DUP6 ADD KECCAK256 DUP2 DUP4 MSTORE DUP1 SWAP6 POP POP POP POP POP POP PUSH1 0x0 SWAP2 POP SWAP1 POP SLOAD DUP2 JUMP JUMPDEST DUP3 DUP1 SLOAD PUSH2 0x249 SWAP1 PUSH2 0x5CA JUMP JUMPDEST SWAP1 PUSH1 0x0 MSTORE PUSH1 0x20 PUSH1 0x0 KECCAK256 SWAP1 PUSH1 0x1F ADD PUSH1 0x20 SWAP1 DIV DUP2 ADD SWAP3 DUP3 PUSH2 0x26B JUMPI PUSH1 0x0 DUP6 SSTORE PUSH2 0x2B2 JUMP JUMPDEST DUP3 PUSH1 0x1F LT PUSH2 0x284 JUMPI DUP1 MLOAD PUSH1 0xFF NOT AND DUP4 DUP1 ADD OR DUP6 SSTORE PUSH2 0x2B2 JUMP JUMPDEST DUP3 DUP1 ADD PUSH1 0x1 ADD DUP6 SSTORE DUP3 ISZERO PUSH2 0x2B2 JUMPI SWAP2 DUP3 ADD JUMPDEST DUP3 DUP2 GT ISZERO PUSH2 0x2B1 JUMPI DUP3 MLOAD DUP3 SSTORE SWAP2 PUSH1 0x20 ADD SWAP2 SWAP1 PUSH1 0x1 ADD SWAP1 PUSH2 0x296 JUMP JUMPDEST JUMPDEST POP SWAP1 POP PUSH2 0x2BF SWAP2 SWAP1 PUSH2 0x2C3 JUMP JUMPDEST POP SWAP1 JUMP JUMPDEST JUMPDEST DUP1 DUP3 GT ISZERO PUSH2 0x2DC JUMPI PUSH1 0x0 DUP2 PUSH1 0x0 SWAP1 SSTORE POP PUSH1 0x1 ADD PUSH2 0x2C4 JUMP JUMPDEST POP SWAP1 JUMP JUMPDEST PUSH1 0x0 PUSH2 0x2F3 PUSH2 0x2EE DUP5 PUSH2 0x527 JUMP JUMPDEST PUSH2 0x4F6 JUMP JUMPDEST SWAP1 POP DUP3 DUP2 MSTORE PUSH1 0x20 DUP2 ADD DUP5 DUP5 DUP5 ADD GT ISZERO PUSH2 0x30B JUMPI PUSH1 0x0 DUP1 REVERT JUMPDEST PUSH2 0x316 DUP5 DUP3 DUP6 PUSH2 0x588 JUMP JUMPDEST POP SWAP4 SWAP3 POP POP POP JUMP JUMPDEST PUSH1 0x0 DUP3 PUSH1 0x1F DUP4 ADD SLT PUSH2 0x32F JUMPI PUSH1 0x0 DUP1 REVERT JUMPDEST DUP2 CALLDATALOAD PUSH2 0x33F DUP5 DUP3 PUSH1 0x20 DUP7 ADD PUSH2 0x2E0 JUMP JUMPDEST SWAP2 POP POP SWAP3 SWAP2 POP POP JUMP JUMPDEST PUSH1 0x0 DUP2 CALLDATALOAD SWAP1 POP PUSH2 0x357 DUP2 PUSH2 0x66B JUMP JUMPDEST SWAP3 SWAP2 POP POP JUMP JUMPDEST PUSH1 0x0 PUSH1 0x20 DUP3 DUP5 SUB SLT ISZERO PUSH2 0x36F JUMPI PUSH1 0x0 DUP1 REVERT JUMPDEST PUSH1 0x0 DUP3 ADD CALLDATALOAD PUSH8 0xFFFFFFFFFFFFFFFF DUP2 GT ISZERO PUSH2 0x389 JUMPI PUSH1 0x0 DUP1 REVERT JUMPDEST PUSH2 0x395 DUP5 DUP3 DUP6 ADD PUSH2 0x31E JUMP JUMPDEST SWAP2 POP POP SWAP3 SWAP2 POP POP JUMP JUMPDEST PUSH1 0x0 DUP1 PUSH1 0x40 DUP4 DUP6 SUB SLT ISZERO PUSH2 0x3B1 JUMPI PUSH1 0x0 DUP1 REVERT JUMPDEST PUSH1 0x0 DUP4 ADD CALLDATALOAD PUSH8 0xFFFFFFFFFFFFFFFF DUP2 GT ISZERO PUSH2 0x3CB JUMPI PUSH1 0x0 DUP1 REVERT JUMPDEST PUSH2 0x3D7 DUP6 DUP3 DUP7 ADD PUSH2 0x31E JUMP JUMPDEST SWAP3 POP POP PUSH1 0x20 PUSH2 0x3E8 DUP6 DUP3 DUP7 ADD PUSH2 0x348 JUMP JUMPDEST SWAP2 POP POP SWAP3 POP SWAP3 SWAP1 POP JUMP JUMPDEST PUSH1 0x0 PUSH1 0x20 DUP3 DUP5 SUB SLT ISZERO PUSH2 0x404 JUMPI PUSH1 0x0 DUP1 REVERT JUMPDEST PUSH1 0x0 PUSH2 0x412 DUP5 DUP3 DUP6 ADD PUSH2 0x348 JUMP JUMPDEST SWAP2 POP POP SWAP3 SWAP2 POP POP JUMP JUMPDEST PUSH1 0x0 PUSH2 0x426 DUP3 PUSH2 0x557 JUMP JUMPDEST PUSH2 0x430 DUP2 DUP6 PUSH2 0x562 JUMP JUMPDEST SWAP4 POP PUSH2 0x440 DUP2 DUP6 PUSH1 0x20 DUP7 ADD PUSH2 0x597 JUMP JUMPDEST PUSH2 0x449 DUP2 PUSH2 0x65A JUMP JUMPDEST DUP5 ADD SWAP2 POP POP SWAP3 SWAP2 POP POP JUMP JUMPDEST PUSH1 0x0 PUSH2 0x45F DUP3 PUSH2 0x557 JUMP JUMPDEST PUSH2 0x469 DUP2 DUP6 PUSH2 0x573 JUMP JUMPDEST SWAP4 POP PUSH2 0x479 DUP2 DUP6 PUSH1 0x20 DUP7 ADD PUSH2 0x597 JUMP JUMPDEST DUP1 DUP5 ADD SWAP2 POP POP SWAP3 SWAP2 POP POP JUMP JUMPDEST PUSH2 0x48E DUP2 PUSH2 0x57E JUMP JUMPDEST DUP3 MSTORE POP POP JUMP JUMPDEST PUSH1 0x0 PUSH2 0x4A0 DUP3 DUP5 PUSH2 0x454 JUMP JUMPDEST SWAP2 POP DUP2 SWAP1 POP SWAP3 SWAP2 POP POP JUMP JUMPDEST PUSH1 0x0 PUSH1 0x40 DUP3 ADD SWAP1 POP DUP2 DUP2 SUB PUSH1 0x0 DUP4 ADD MSTORE PUSH2 0x4C5 DUP2 DUP6 PUSH2 0x41B JUMP JUMPDEST SWAP1 POP PUSH2 0x4D4 PUSH1 0x20 DUP4 ADD DUP5 PUSH2 0x485 JUMP JUMPDEST SWAP4 SWAP3 POP POP POP JUMP JUMPDEST PUSH1 0x0 PUSH1 0x20 DUP3 ADD SWAP1 POP PUSH2 0x4F0 PUSH1 0x0 DUP4 ADD DUP5 PUSH2 0x485 JUMP JUMPDEST SWAP3 SWAP2 POP POP JUMP JUMPDEST PUSH1 0x0 PUSH1 0x40 MLOAD SWAP1 POP DUP2 DUP2 ADD DUP2 DUP2 LT PUSH8 0xFFFFFFFFFFFFFFFF DUP3 GT OR ISZERO PUSH2 0x51D JUMPI PUSH2 0x51C PUSH2 0x62B JUMP JUMPDEST JUMPDEST DUP1 PUSH1 0x40 MSTORE POP SWAP2 SWAP1 POP JUMP JUMPDEST PUSH1 0x0 PUSH8 0xFFFFFFFFFFFFFFFF DUP3 GT ISZERO PUSH2 0x542 JUMPI PUSH2 0x541 PUSH2 0x62B JUMP JUMPDEST JUMPDEST PUSH1 0x1F NOT PUSH1 0x1F DUP4 ADD AND SWAP1 POP PUSH1 0x20 DUP2 ADD SWAP1 POP SWAP2 SWAP1 POP JUMP JUMPDEST PUSH1 0x0 DUP2 MLOAD SWAP1 POP SWAP2 SWAP1 POP JUMP JUMPDEST PUSH1 0x0 DUP3 DUP3 MSTORE PUSH1 0x20 DUP3 ADD SWAP1 POP SWAP3 SWAP2 POP POP JUMP JUMPDEST PUSH1 0x0 DUP2 SWAP1 POP SWAP3 SWAP2 POP POP JUMP JUMPDEST PUSH1 0x0 DUP2 SWAP1 POP SWAP2 SWAP1 POP JUMP JUMPDEST DUP3 DUP2 DUP4 CALLDATACOPY PUSH1 0x0 DUP4 DUP4 ADD MSTORE POP POP POP JUMP JUMPDEST PUSH1 0x0 JUMPDEST DUP4 DUP2 LT ISZERO PUSH2 0x5B5 JUMPI DUP1 DUP3 ADD MLOAD DUP2 DUP5 ADD MSTORE PUSH1 0x20 DUP2 ADD SWAP1 POP PUSH2 0x59A JUMP JUMPDEST DUP4 DUP2 GT ISZERO PUSH2 0x5C4 JUMPI PUSH1 0x0 DUP5 DUP5 ADD MSTORE JUMPDEST POP POP POP POP JUMP JUMPDEST PUSH1 0x0 PUSH1 0x2 DUP3 DIV SWAP1 POP PUSH1 0x1 DUP3 AND DUP1 PUSH2 0x5E2 JUMPI PUSH1 0x7F DUP3 AND SWAP2 POP JUMPDEST PUSH1 0x20 DUP3 LT DUP2 EQ ISZERO PUSH2 0x5F6 JUMPI PUSH2 0x5F5 PUSH2 0x5FC JUMP JUMPDEST JUMPDEST POP SWAP2 SWAP1 POP JUMP JUMPDEST PUSH32 0x4E487B7100000000000000000000000000000000000000000000000000000000 PUSH1 0x0 MSTORE PUSH1 0x22 PUSH1 0x4 MSTORE PUSH1 0x24 PUSH1 0x0 REVERT JUMPDEST PUSH32 0x4E487B7100000000000000000000000000000000000000000000000000000000 PUSH1 0x0 MSTORE PUSH1 0x41 PUSH1 0x4 MSTORE PUSH1 0x24 PUSH1 0x0 REVERT JUMPDEST PUSH1 0x0 PUSH1 0x1F NOT PUSH1 0x1F DUP4 ADD AND SWAP1 POP SWAP2 SWAP1 POP JUMP JUMPDEST PUSH2 0x674 DUP2 PUSH2 0x57E JUMP JUMPDEST DUP2 EQ PUSH2 0x67F JUMPI PUSH1 0x0 DUP1 REVERT JUMPDEST POP JUMP INVALID LOG2 PUSH5 0x6970667358 0x22 SLT KECCAK256 0xDF EQ 0xD0 0xA7 SSTORE ADDRESS 0x1F 0x4A DUP2 0x49 0xC9 COINBASE SWAP10 0xAD 0xF7 DUP14 0x5F 0x26 SWAP9 0xDD 0xE9 DUP2 PUSH22 0x8E71428C92AECE7C5F64736F6C634300080000330000 "
				},
				"gasEstimates": {
					"creation": {
						"codeDepositCost": "344000",
						"executionCost": "380",
						"totalCost": "344380"
					},
					"external": {
						"addItems(string,uint256)": "infinite",
						"nameToAge(string)": "infinite",
						"students(uint256)": "infinite"
					}
				},
				"methodIdentifiers": {
					"addItems(string,uint256)": "07c4733a",
					"nameToAge(string)": "90c3ee4d",
					"students(uint256)": "06ead22e"
				}
			},
			"storageLayout": {
				"storage": [
					{
						"astId": 3,
						"contract": "DepartmentStore.sol:ClassRecordBook",
						"label": "itemPrice",
						"offset": 0,
						"slot": "0",
						"type": "t_uint256"
					},
					{
						"astId": 12,
						"contract": "DepartmentStore.sol:ClassRecordBook",
						"label": "students",
						"offset": 0,
						"slot": "1",
						"type": "t_array(t_struct(Students)8_storage)dyn_storage"
					},
					{
						"astId": 16,
						"contract": "DepartmentStore.sol:ClassRecordBook",
						"label": "nameToAge",
						"offset": 0,
						"slot": "2",
						"type": "t_mapping(t_string_memory_ptr,t_uint256)"
					}
				],
				"types": {
					"t_array(t_struct(Students)8_storage)dyn_storage": {
						"base": "t_struct(Students)8_storage",
						"encoding": "dynamic_array",
						"label": "struct ClassRecordBook.Students[]",
						"numberOfBytes": "32"
					},
					"t_mapping(t_string_memory_ptr,t_uint256)": {
						"encoding": "mapping",
						"key": "t_string_memory_ptr",
						"label": "mapping(string => uint256)",
						"numberOfBytes": "32",
						"value": "t_uint256"
					},
					"t_string_memory_ptr": {
						"encoding": "bytes",
						"label": "string",
						"numberOfBytes": "32"
					},
					"t_string_storage": {
						"encoding": "bytes",
						"label": "string",
						"numberOfBytes": "32"
					},
					"t_struct(Students)8_storage": {
						"encoding": "inplace",
						"label": "struct ClassRecordBook.Students",
						"members": [
							{
								"astId": 5,
								"contract": "DepartmentStore.sol:ClassRecordBook",
								"label": "studentName",
								"offset": 0,
								"slot": "0",
								"type": "t_string_storage"
							},
							{
								"astId": 7,
								"contract": "DepartmentStore.sol:ClassRecordBook",
								"label": "studentAge",
								"offset": 0,
								"slot": "1",
								"type": "t_uint256"
							}
						],
						"numberOfBytes": "64"
					},
					"t_uint256": {
						"encoding": "inplace",
						"label": "uint256",
						"numberOfBytes": "32"
					}
				}
			},
			"userdoc": {
				"kind": "user",
				"methods": {},
				"version": 1
			}
		}
	}
}